:100000000EC020C01FC01EC01DC01CC01BC01AC017
:1000100019C018C017C016C015C014C013C01124D1
:100020001FBECFE5D1E0DEBFCDBF10E0A0E6B0E05F
:10003000ECE6F1E002C005900D92A436B107D9F7C5
:1000400055D092C0DDCF369A349BFECF349A24B17E
:1000500035B1C90108953E9A86B1866086B9379A4E
:100060000895FF920F931F93CF93DF93EC0194E0D9
:10007000F92E00E010E0E881F98180819A81892BD6
:10008000808389EF90E00197F1F700C00000E881DC
:10009000F98190818A8180958923808387B1807ED0
:1000A00087B987B18F6187B9CEDF8B8197B1907E99
:1000B00097B997B18F71892B87B9C5DF080F191FC1
:1000C000FA94C9F61695079516950795C801DF911C
:1000D000CF911F910F91FF90089583E389BD89E926
:1000E0008EBD0895843608F419BC0895B4DFF5DF99
:1000F000D1E0C1E080E690E0B4DF8F3F9140D0F7DF
:10010000C53039F4D130B9F480E5ECDFD0E0C4E09B
:1001100018C0C13039F4D11107C088E2E3DFD1E063
:10012000C2E00FC0D13039F4CF5F8C2F64E113D01F
:10013000D9DFD1E006C0C1508C2F64E10CD0D2DFF2
:10014000D0E08FE996E821E0815090402040E1F72F
:1001500000C00000CFCF002480FD060E660F11F016
:0C0160008695D1F7802D0895F894FFCF0C
:04016C003800200037
:00000001FF
